:020000040800F2
:10000000000003204D230008B51F0008C31F00088F
:10001000C91F0008CF1F0008D51F000800000000FE
:10002000000000000000000000000000DB1F0008CE
:10003000E91F000800000000F71F00080520000865
:100040009D2300089D2300089D2300089D23000890
:100050009D2300089D230008112000089D2300080F
:100060009D2300089D2300089D2300089D23000870
:100070009D2300089D2300089D2300089D23000860
:100080009D2300089D2300082D2000089D230008C3
:100090009D2300089D2300089D2300089D23000840
:1000A0009D230008412000089D2300089D2300088F
:1000B000092100089D2300089D2300089D230008B6
:1000C0009D2300089D2300089D2300089D23000810
:1000D0009D2300089D2300089D2300089D23000800
:1000E0009D2300089D2300089D2300089D230008F0
:1000F0009D2300089D2300089D2300089D230008E0
:100100009D2300089D2300089D2300089D230008CF
:100110009D2300089D2300089D2300089D230008BF
:100120009D2300089D2300089D2300089D230008AF
:100130009D2300089D2300089D2300089D2300089F
:100140009D2300089D2300089D2300089D2300088F
:100150009D2300089D2300089D2300089D2300087F
:100160009D2300089D2300089D2300089D2300086F
:100170009D2300089D2300089D2300080000000027
:100180009D2300089D2300089D2300089D2300084F
:100190009D2300089D2300089D2300089D2300083F
:0C01A0009D2300089D2300089D230008FB
:1001B00010B5054C237833B9044B13B10448AFF3A1
:1001C00000800123237010BDF40100200000000016
:1001D0001C7E000808B5034B1BB103490348AFF36D
:1001E000008008BD00000000F80100201C7E00080F
:1001F000034613F8012B002AFBD1181A0138704767
:1002000001F0FF01102A2BDB10F0070F08D010F8C7
:10021000013B013A8B422DD010F0070F42B3F6D1CB
:10022000F0B441EA012141EA014122F007047FF0E4
:1002300000070023F0E80256083C85EA010586EA3B
:10024000010685FA47F5A3FA87F586FA47F6A5FA77
:1002500087F68EB9EED1F0BC01F0FF0102F0070283
:1002600032B110F8013B013A83EA010313B1F8D12E
:100270000020704701387047002D06BF354603380F
:10028000073815F0010F07D1013015F4807F02BF48
:10029000013015F4C03F0130F0BC0138704700BF99
:1002A00081F0004102E000BF83F0004330B54FEA27
:1002B00041044FEA430594EA050F08BF90EA020F94
:1002C0001FBF54EA000C55EA020C7FEA645C7FEA27
:1002D000655C00F0E2804FEA5454D4EB5555B8BF4A
:1002E0006D420CDD2C4480EA020281EA030382EABB
:1002F000000083EA010180EA020281EA0303362D4D
:1003000088BF30BD11F0004F4FEA01314FF4801C1F
:100310004CEA113102D0404261EB410113F0004F31
:100320004FEA03334CEA133302D0524263EB4303E8
:1003300094EA050F00F0A780A4F10104D5F1200E86
:100340000DDB02FA0EFC22FA05F2801841F10001E1
:1003500003FA0EF2801843FA05F359410EE0A5F1B5
:1003600020050EF1200E012A03FA0EFC28BF4CF0E6
:10037000020C43FA05F3C01851EBE37101F000459C
:1003800007D54FF0000EDCF1000C7EEB00006EEBA9
:100390000101B1F5801F1BD3B1F5001F0CD3490833
:1003A0005FEA30004FEA3C0C04F101044FEA44528A
:1003B00012F5800F80F09A80BCF1004F08BF5FEA11
:1003C000500C50F1000041EB045141EA050130BDF1
:1003D0005FEA4C0C404141EB0101013C28BFB1F503
:1003E000801FE9D291F0000F04BF01460020B1FA4E
:1003F00081F308BF2033A3F10B03B3F120020CDA21
:100400000C3208DD02F1140CC2F10C0201FA0CF0FE
:1004100021FA02F10CE002F11402D8BFC2F1200C63
:1004200001FA02F120FA0CFCDCBF41EA0C01904019
:10043000E41AA2BF01EB0451294330BD6FEA040462
:100440001F3C1CDA0C340EDC04F11404C4F120024D
:1004500020FA04F001FA02F340EA030021FA04F35F
:1004600045EA030130BDC4F10C04C4F1200220FAB6
:1004700002F001FA04F340EA0300294630BD21FAF4
:1004800004F0294630BD94F0000F83F4801306BFBA
:1004900081F480110134013D4EE77FEA645C18BFAE
:1004A0007FEA655C29D094EA050F08BF90EA020F45
:1004B00005D054EA000C04BF1946104630BD91EA3D
:1004C000030F1EBF0021002030BD5FEA545C05D140
:1004D0004000494128BF41F0004130BD14F580047F
:1004E0003CBF01F5801130BD01F0004545F0FE41F3
:1004F00041F470014FF0000030BD7FEA645C1ABF28
:10050000194610467FEA655C1CBF0B46024650EA5E
:10051000013406BF52EA033591EA030F41F400218A
:1005200030BD00BF90F0000F04BF0021704730B510
:100530004FF4806404F132044FF000054FF00001E5
:1005400050E700BF90F0000F04BF0021704730B5A6
:100550004FF4806404F1320410F0004548BF40427B
:100560004FF000013EE700BF42004FEAE2014FEAD0
:1005700031014FEA02701FBF12F07F4393F07F4FAB
:1005800081F06051704732F07F4208BF704793F0AE
:100590007F4F04BF41F40021704730B54FF46074C1
:1005A00001F0004521F000411CE700BF50EA0102C4
:1005B00008BF704730B54FF000050AE050EA01026D
:1005C00008BF704730B511F0004502D5404261EBDD
:1005D00041014FF4806404F132045FEA915C3FF41E
:1005E000D8AE4FF003025FEADC0C18BF03325FEABB
:1005F000DC0C18BF033202EBDC02C2F1200300FA6C
:1006000003FC20FA02F001FA03FE40EA0E0021FA90
:1006100002F11444BDE600BF70B54FF0FF0C4CF47E
:10062000E06C1CEA11541DBF1CEA135594EA0C0F30
:1006300095EA0C0F00F0DEF82C4481EA030621EA6B
:100640004C5123EA4C5350EA013518BF52EA0335A6
:1006500041F4801143F4801338D0A0FB02CE4FF058
:100660000005E1FB02E506F00042E0FB03E54FF088
:100670000006E1FB03569CF0000F18BF4EF0010E80
:10068000A4F1FF04B6F5007F64F5407404D25FEA7C
:100690004E0E6D4146EB060642EAC62141EA55512F
:1006A0004FEAC52040EA5E504FEACE2EB4F1FD0C71
:1006B00088BFBCF5E06F1ED8BEF1004F08BF5FEAEF
:1006C000500E50F1000041EB045170BD06F00046A1
:1006D00046EA010140EA020081EA0301B4EB5C044E
:1006E000C2BFD4EB0C0541EA045170BD41F4801146
:1006F0004FF0000E013C00F3AB8014F1360FDEBF6B
:10070000002001F0004170BDC4F10004203C35DA46
:100710000C341BDC04F11404C4F1200500FA05F3C9
:1007200020FA04F001FA05F240EA020001F000426A
:1007300021F0004110EBD37021FA04F642EB0601E0
:100740005EEA430E08BF20EAD37070BDC4F10C040A
:10075000C4F1200500FA04F320FA05F001FA04F2CE
:1007600040EA020001F0004110EBD37041F10001BA
:100770005EEA430E08BF20EAD37070BDC4F12005C5
:1007800000FA05F24EEA020E20FA04F301FA05F22D
:1007900043EA020321FA04F001F0004121FA04F2D5
:1007A00020EA020000EBD3705EEA430E08BF20EAA5
:1007B000D37070BD94F0000F0FD101F000464000DF
:1007C00041EB010111F4801F08BF013CF7D041EA61
:1007D000060195F0000F18BF704703F00046520065
:1007E00043EB030313F4801F08BF013DF7D043EA36
:1007F0000603704794EA0C0F0CEA135518BF95EAEC
:100800000C0F0CD050EA410618BF52EA4306D1D172
:1008100081EA030101F000414FF0000070BD50EA91
:10082000410606BF1046194652EA430619D094EA1B
:100830000C0F02D150EA013613D195EA0C0F05D105
:1008400052EA03361CBF104619460AD181EA030159
:1008500001F0004141F0FE4141F470014FF0000011
:1008600070BD41F0FE4141F4780170BD70B54FF0AC
:10087000FF0C4CF4E06C1CEA11541DBF1CEA13552C
:1008800094EA0C0F95EA0C0F00F0A7F8A4EB05040E
:1008900081EA030E52EA03354FEA013100F0888005
:1008A0004FEA03334FF0805545EA131343EA1263CE
:1008B0004FEA022245EA111545EA10654FEA002683
:1008C0000EF000419D4208BF964244F1FD0404F53C
:1008D000407402D25B084FEA3202B61A65EB030598
:1008E0005B084FEA32024FF480104FF4002CB6EB55
:1008F000020E75EB030E22BFB61A754640EA0C00D5
:100900005B084FEA3202B6EB020E75EB030E22BF14
:10091000B61A754640EA5C005B084FEA3202B6EB55
:10092000020E75EB030E22BFB61A754640EA9C0014
:100930005B084FEA3202B6EB020E75EB030E22BFE4
:10094000B61A754640EADC0055EA060E18D04FEAA2
:10095000051545EA16754FEA06164FEAC30343EA42
:1009600052734FEAC2025FEA1C1CC0D111F4801F0F
:100970000BD141EA00014FF000004FF0004CB6E708
:1009800011F4801F04BF01430020B4F1FD0C88BFA7
:10099000BCF5E06F3FF6AFAEB5EB030C04BFB6EBB2
:1009A000020C5FEA500C50F1000041EB045170BDA5
:1009B0000EF0004E4EEA113114EB5C04C2BFD4EBD2
:1009C0000C0541EA045170BD41F480114FF0000E56
:1009D000013C90E645EA060E8DE60CEA135594EAD2
:1009E0000C0F08BF95EA0C0F3FF43BAF94EA0C0FD5
:1009F0000AD150EA01347FF434AF95EA0C0F7FF44A
:100A000025AF104619462CE795EA0C0F06D152EA9D
:100A100003353FF4FDAE1046194622E750EA410681
:100A200018BF52EA43067FF4C5AE50EA41047FF492
:100A30000DAF52EA43057FF4EBAE12E74FF0FF3CF7
:100A400006E000BF4FF0010C02E000BF4FF0010CC8
:100A50004DF804CD4FEA410C7FEA6C5C4FEA430C41
:100A600018BF7FEA6C5C1BD001B050EA410C0CBF90
:100A700052EA430C91EA030F02BF90EA020F0020F2
:100A8000704710F1000F91EA030F58BF994208BF59
:100A900090422CBFD8176FEAE37040F00100704716
:100AA0004FEA410C7FEA6C5C02D150EA013C07D16D
:100AB0004FEA430C7FEA6C5CD6D152EA033CD3D0B8
:100AC0005DF8040B704700BF8446104662468C46B2
:100AD0001946634600E000BF01B5FFF7B7FF0028E5
:100AE00048BF10F1000F01BD4DF808EDFFF7F4FF0E
:100AF0000CBF012000205DF808FB00BF4DF808ED99
:100B0000FFF7EAFF34BF012000205DF808FB00BFBB
:100B10004DF808EDFFF7E0FF94BF012000205DF8DD
:100B200008FB00BF4DF808EDFFF7CEFF94BF012092
:100B300000205DF808FB00BF4DF808EDFFF7C4FF8B
:100B400034BF012000205DF808FB00BF4FEA410CD4
:100B50007FEA6C5C02D150EA013C0AD14FEA430CB7
:100B60007FEA6C5C02D152EA033C02D14FF00000F4
:100B700070474FF0010070474FEA410212F5001232
:100B800015D211D56FF47873B3EB625212D94FEAD4
:100B9000C12343F0004343EA505311F0004F23FABE
:100BA00002F018BF404270474FF00000704750EA13
:100BB000013005D111F0004008BF6FF000407047D0
:100BC0004FF00000704700BF4FEA4102B2F1E0432E
:100BD00024BFB3F5001CDCF1FE5C0DD901F0004C24
:100BE0004FEAC0024CEA5070B2F1004F40EB830074
:100BF00008BF20F00100704711F0804F21D113F1A0
:100C00003872BCBF01F00040704741F480114FEAD8
:100C10005252C2F11802C2F1200C10FA0CF320FA61
:100C200002F018BF40F001004FEAC1234FEAD3237E
:100C300003FA0CFC40EA0C0023FA02F34FEA4303E8
:100C4000CCE77FEA625307D150EA01331EBF4FF071
:100C5000FE4040F44000704701F0004040F0FE408C
:100C600040F40000704700BF53B94AB9002908BFDB
:100C700000281CBF4FF0FF314FF0FF3000F074B977
:100C8000ADF1080C6DE904CE00F006F8DDF804E0E3
:100C9000DDE9022304B070472DE9F047089D0446C2
:100CA0008E46002B4DD18A42944669D9B2FA82F21F
:100CB00052B101FA02F3C2F1200120FA01F10CFA5B
:100CC00002FC41EA030E94404FEA1C48210CBEFB93
:100CD000F8F61FFA8CF708FB16E341EA034306FB1C
:100CE00007F199420AD91CEB030306F1FF3080F0AB
:100CF0001F81994240F21C81023E63445B1AA4B2F8
:100D0000B3FBF8F008FB103344EA034400FB07F799
:100D1000A7420AD91CEB040400F1FF3380F00A81DA
:100D2000A74240F207816444023840EA0640E41BCF
:100D300000261DB1D4400023C5E900433146BDE87B
:100D4000F0878B4209D9002D00F0EF800026C5E91D
:100D5000000130463146BDE8F087B3FA83F6002E35
:100D60004AD18B4202D3824200F2F980841A61EBAD
:100D7000030301209E46002DE0D0C5E9004EDDE7CB
:100D800002B9FFDEB2FA82F2002A40F09280A1EBB3
:100D90000C014FEA1C471FFA8CFE0126200CB1FB08
:100DA000F7F307FB131140EA01410EFB03F0884201
:100DB00008D91CEB010103F1FF3802D2884200F28E
:100DC000CB804346091AA4B2B1FBF7F007FB101120
:100DD00044EA01440EFB00FEA64508D91CEB0404BE
:100DE00000F1FF3102D2A64500F2BB800846A4EB19
:100DF0000E0440EA03409CE7C6F12007B34022FA04
:100E000007FC4CEA030C20FA07F401FA06F31C4332
:100E1000F9404FEA1C4900FA06F3B1FBF9F8200C3F
:100E20001FFA8CFE09FB181140EA014108FB0EF085
:100E3000884202FA06F20BD91CEB010108F1FF3AD5
:100E400080F08880884240F28580A8F102086144E1
:100E5000091AA4B2B1FBF9F009FB101144EA0141EF
:100E600000FB0EFE8E4508D91CEB010100F1FF349A
:100E70006CD28E456AD90238614440EA0840A0FB32
:100E80000294A1EB0E01A142C846A64656D353D008
:100E90005DB1B3EB080261EB0E0101FA07F722FA2C
:100EA00006F3F1401F43C5E9007100263146BDE855
:100EB000F087C2F12003D8400CFA02FC21FA03F3B8
:100EC000914001434FEA1C471FFA8CFEB3FBF7F039
:100ED00007FB10360B0C43EA064300FB0EF69E425E
:100EE00004FA02F408D91CEB030300F1FF382FD2F7
:100EF0009E422DD9023863449B1B89B2B3FBF7F69F
:100F000007FB163341EA034106FB0EF38B4208D977
:100F10001CEB010106F1FF3816D28B4214D9023EB8
:100F20006144C91A46EA004638E72E46284605E7D6
:100F30000646E3E61846F8E64B45A9D2B9EB0208A7
:100F400064EB0C0E0138A3E74646EAE7204694E737
:100F50004046D1E7D0467BE7023B614432E730466A
:100F600009E76444023842E7704700BF80B582B0A9
:100F700000AF0346FB71384AFB791370374B0822E8
:100F80001A70374B00221A70334B1B78012B07D98C
:100F9000334B1B7843F00803DAB2314B1A7006E08A
:100FA0002F4B1B7843F00403DAB22D4B1A7000F07C
:100FB0009DF9322001F066FA284B1B78184600F0A4
:100FC0005BF94FF47A7001F05DFA302000F043F9DC
:100FD00041F2941000F0B4F9302000F03CF941F2F5
:100FE000941000F0ADF9302000F035F941F2941082
:100FF00000F0A6F9202000F02EF9642000F0A0F9FE
:10100000174B1B7843F02003DBB2184600F0E6F8DC
:10101000144B04221A7000F075F800F02BF8124BF4
:1010200002221A70104B1B7843F00403DBB21846FF
:1010300000F0D4F841F2941000F082F90B4900203E
:1010400000F076F80A49012000F072F800F01DF86F
:1010500000BF0837BD4680BD1302002014020020E7
:1010600010020020110200201202002000000020C7
:101070000800002080B500AF012000F0AFF84FF469
:10108000FA6000F05DF900BF80BD80B500AF0220BE
:1010900000F0A4F84FF4FA6000F052F900BF80BDF0
:1010A00090B587B000AF03460A46FB711346BB718B
:1010B000124B07F108040FCB84E80F00104B1B788C
:1010C000BA799A4203D30E4B1B78013BBB71BB79B3
:1010D0009B0018333B4453F8103CDAB2FB791344BD
:1010E000DBB25BB263F07F035BB2DBB2184600F0A9
:1010F00075F800BF1C37BD4690BD00BF387E0008A4
:101100001302002080B500AF084B1B7843F00403A6
:10111000DAB2064B1A70054B1B7843F00803DBB2BA
:10112000184600F05BF800BF80BD00BF1102002030
:1011300080B584B000AF03463960FB71FB7903F0E2
:101140000703FB71FB79DB005BB243F040035BB24A
:10115000DBB2184600F042F80023FB6009E0FB68B0
:101160003A6813441B78184600F046F8FB680133D0
:10117000FB60FB68072BF2DD00BF00BF1037BD46E8
:1011800080BD80B582B000AF786006E07B685A1CF5
:101190007A601B78184600F02FF87B681B78002BCC
:1011A000F4D100BF00BF0837BD4680BD80B500AF99
:1011B000034B00221A70002000F05EF800BF80BDD3
:1011C0001402002080B500AF034B08221A700020E3
:1011D00000F052F800BF80BD1402002080B582B03C
:1011E00000AF0346FB71FB790021184600F012F8AE
:1011F00000BF0837BD4680BD80B582B000AF034652
:10120000FB71FB790121184600F004F800BF083794
:10121000BD4680BD80B584B000AF03460A46FB7171
:101220001346BB71FB7923F00F03FB73FB791B01A2
:10123000BB73FA7BBB791343DBB2184600F00BF8A3
:10124000BA7BBB791343DBB2184600F004F800BF49
:101250001037BD4680BD80B582B000AF0346FB713C
:10126000FB79184600F008F8FB79184600F020F8E2
:1012700000BF0837BD4680BD80B586B002AF0346CB
:10128000FB71094B1A78FB791343DBB2FB7307F14F
:101290000F020A23009301237E21044802F0D6FAAC
:1012A00000BF1037BD4680BD140200208002002020
:1012B00080B582B000AF0346FB71FB7943F00403B5
:1012C000DBB21846FFF7D8FF142000F039F8FB799D
:1012D00023F00403DBB21846FFF7CEFF142000F022
:1012E0002FF800BF0837BD4680BD000080B400AFB6
:1012F000114BDB68104A23F08073D3600E4BDB6820
:101300000D4A43F08073D3600C4B1B680B4A23F0EB
:1013100001031360094B1B68084A43F00103136083
:10132000064B00225A6000BF00BF00BF00BFBD4691
:101330005DF8047B704700BFF0ED00E0001000E0B6
:1013400080B487B000AF78600E4B1B680E4AA2FBDA
:1013500003239A0C7B6802FB03F37B610B4B5B68F6
:101360003B610A4B5A683B69D31AFB60FB687A6998
:101370009A42F6D800BF00BF1C37BD465DF8047B1B
:10138000704700BF1800002083DE1B43001000E000
:10139000B0B58AB000AF03463960FB80234B07F13C
:1013A0000C041D460FCD0FC495E8030084E803002C
:1013B00000237B621BE07B6A9B0028333B4453F88D
:1013C0001C3C99B2FA8801207B6A00FA03F31A40A8
:1013D0007B6A42FA03F3DBB21A46154802F09AF828
:1013E0003B68184601F04EF87B6A01337B627B6AEA
:1013F000042BE0DD0F4B1B68032B0CD03B6A99B22A
:10140000FB885B11DBB203F00103DBB21A460A482A
:1014100002F080F806E03B6A9BB2002219460648BB
:1014200002F078F800BF2837BD46B0BD487E0008FE
:1014300000040240100000200010024080B500AF00
:10144000094B1B68002B0CD0FFF714FE64211F20F2
:10145000FFF79EFF64210020FFF79AFF024B002256
:101460001A6000BF80BD00BF2002002080B582B09E
:1014700000AF87ED010A3860D7ED017A9FED0E7A53
:10148000F4EEC77AF1EE10FA01DD01233B60D7EDEF
:10149000017A9FED097AF4EEC77AF1EE10FA00D4E2
:1014A00006E03B68012B03D1FFF7E4FD00233B601E
:1014B00000BF0837BD4680BD0000C84200000000E4
:1014C00080B584B000AF78600B46FB707B6807EE98
:1014D000903AB8EEE77ADFED1C6AC7EE267AC7EDE0
:1014E000037A4FF00003BB60FB78432B01D1FB680C
:1014F0001FE0FB78462B1AD1F868FFF735F810A3E8
:10150000D3E90023FFF788F802460B461046194638
:101510004FF000020D4BFEF7C9FE02460B46104687
:101520001946FFF751FB0346BB60BB6801E04FF073
:10153000000307EE903AB0EE670A1037BD4680BD53
:10154000CDCCCCCCCCCCFC3F0000104200004040C5
:1015500080B582B000AF87ED010A0346FB70FB78CF
:10156000462B16D1D7ED017A9FED337A77EEC77A05
:1015700017EE900AFEF7F8FF2DA3D3E90023FFF73B
:1015800075F902460B4610461946FFF71DFB034648
:101590007B60D7ED017A9FED297AF4EEC77AF1EE00
:1015A00010FA0FDB264B1B68B3F5FA7F06D3244BEA
:1015B00000221A60FFF706FE3F2332E0FFF7F6FD38
:1015C00000232EE0FFF7FEFDD7ED017A9FED1D7A97
:1015D000F4EEC77AF1EE10FA01DB0F2321E0D7ED2C
:1015E000017A9FED197AF4EEC77AF1EE10FA01DB79
:1015F000072316E0D7ED017AB3EE0E7AF4EEC77A40
:10160000F1EE10FA01DB03230BE0D7ED017AB3EE24
:10161000047AF4EEC77AF1EE10FA01DB012300E060
:10162000002318460837BD4680BD00BFAFF30080D9
:10163000CDCCCCCCCCCCFC3F0000004200007042B2
:1016400034020020000048420000204280B58CB0E7
:1016500002AF4FF000033B620023FB610023BB613C
:10166000FFF7ECFE334B1B68012B03D0314B1B689B
:10167000022B5AD12F4B1B68012B03D1432387F830
:10168000273002E0462387F827302B4800F062FF1E
:101690004FF0FF31284801F056F8274801F018FABA
:1016A0000346BB61244801F01BF800210020FFF72E
:1016B000F7FC97F827203B1D2049184604F044F911
:1016C0003B1D1846FFF75DFD01210820FFF7E8FCF0
:1016D00097F827301946B869FFF7F2FE87ED080A38
:1016E000386AFEF741FF02460B4697F82710381D6F
:1016F0000091134904F028F93B1D1846FFF741FDFE
:10170000F86997ED080AFFF7B1FE97F827301846F9
:1017100097ED080AFFF71CFF034600211846FFF764
:1017200037FEFA2000F0AEFE9AE700BF00BF283770
:10173000BD4680BD1000002038020020607E0008F9
:10174000747E000880B5A2B000AF78607B681E2B65
:101750000DDD7A68164B83FB021313441911D3175E
:10176000C91A0B461B015B1A5B00D31A7B607A68AF
:10177000104B83FB021313441911D317C91A0B46DC
:101780005B015B1AD31A7B600B4A07F10C0311460D
:101790007C22184603F058FC7B689B0088333B444E
:1017A00053F87C3C9BB218468837BD4680BD00BFCD
:1017B00089888888430821847C7E000890B589B098
:1017C00002AF3B1D3049184604F0BEF8002100204E
:1017D000FFF766FC3B1D1846FFF7D3FC2B4B19683F
:1017E0002B4B1C682B4B1B682B4A1268381D01922F
:1017F000009323460A46294904F0A6F80121002057
:10180000FFF74EFC3B1D1846FFF7BBFC214B1B6846
:101810001846FFF797FF034600211846FFF7B8FD6B
:101820001B4B1B68002B0DD01A4B1B68002B09D1DA
:10183000194B1B68642B05D801220121184801F0BF
:1018400069FE1CE0124B1B68002B12D0114B1B6869
:10185000002B0ED1104B1B68C72B0AD90E4B1B68EF
:10186000B3F5967F05D8012201210D4801F052FE03
:1018700005E0002201210A4801F04CFE00BF00BF34
:101880001C37BD4690BD00BFF87E0008280200202E
:101890002C0200201400002030020020007F0008ED
:1018A0000010024080B500AF00F07AFD00F03AF879
:1018B00000F0C6F900F0E8F800F094F800F024F920
:1018C00000F072F90220FFF751FBFFF7D3FBFFF79F
:1018D00079FC104800F03EFE0F4802F09EFF0F48D2
:1018E00002F09BFFFFF7AAFD0D4B1B68012B02D1F5
:1018F000FFF7ACFEF6E70A4B1B68032B02D1FFF79C
:101900005DFFEFE7064B1B68032BEBD9FFF7B2FB3C
:10191000E8E700BF38020020D402002014030020B2
:101920001000002080B594B000AF07F120033022F2
:101930000021184603F096FB07F10C0300221A6001
:101940005A609A60DA601A610023BB60234B1B6CFB
:10195000224A43F080531364204B1B6C03F08053E6
:10196000BB60BB6800237B601D4B1B6823F44043B6
:101970001B4A43F480431360194B1B6803F4404334
:101980007B607B6802233B620123FB6210233B6385
:101990000023BB6307F12003184602F0D9FA03467F
:1019A000002B01D000F0FEF90F23FB6000233B6108
:1019B00000237B610023BB610023FB6107F10C0363
:1019C0000021184602F032FD0346002B01D000F042
:1019D000E9F900BF5037BD4680BD00BF0038024066
:1019E0000070004080B584B000AF3B4600221A6012
:1019F0005A609A60DA60214B214A1A601F4B00221C
:101A00005A601E4B00229A601C4B00221A611B4B2D
:101A100000221A76194B002283F82020174B00224F
:101A2000DA62164B174A9A62144B0022DA60134BA3
:101A30000122DA61114B002283F830200F4B012282
:101A40005A610E4800F042FD0346002B01D000F021
:101A5000A9F908233B6001237B600023BB603B4660
:101A60001946064801F060F80346002B01D000F04B
:101A700099F900BF1037BD4680BD00BF3802002075
:101A8000002001400100000F80B500AF1B4B1C4A35
:101A90001A601A4B1B4A5A60184B00229A60174B67
:101AA0000022DA60154B4FF480421A61134B00227A
:101AB0005A61124B00229A61104B0022DA610F4BDF
:101AC00000221A620D4801F07DFD0346002B01D073
:101AD00000F068F90021094802F0BFF90346002B25
:101AE00001D000F05FF90021044802F0F2F903464A
:101AF000002B01D000F056F900BF80BD800200200D
:101B000000540040A086010080B586B000AF07F108
:101B1000080300221A605A609A60DA603B4600228D
:101B20001A605A601E4B1F4A1A601D4BA0225A6051
:101B30001B4B00229A601A4B4FF47A72DA60184BF2
:101B400000221A61164B00225A61154B00229A613D
:101B5000134802F037FE0346002B01D000F022F9B3
:101B60004FF48053BB6007F1080319460C4802F09C
:101B700080FF0346002B01D000F014F900233B60E6
:101B800000237B603B461946054803F0A3F9034652
:101B9000002B01D000F006F900BF1837BD4680BD0C
:101BA000D40200200000014080B586B000AF07F1EC
:101BB000080300221A605A609A60DA603B460022ED
:101BC0001A605A601D4B4FF080421A601B4B102266
:101BD0005A601A4B00229A60184B4FF47A72DA60FE
:101BE000164B00221A61154B00229A61134802F02D
:101BF000E9FD0346002B01D000F0D4F84FF48053E8
:101C0000BB6007F1080319460C4802F032FF034697
:101C1000002B01D000F0C6F800233B6000237B605E
:101C20003B461946054803F055F90346002B01D001
:101C300000F0B8F800BF1837BD4680BD140300207F
:101C400080B58AB000AF07F1140300221A605A6011
:101C50009A60DA601A6100233B614C4B1B6B4B4A64
:101C600043F080031363494B1B6B03F080033B611C
:101C70003B690023FB60454B1B6B444A43F0010367
:101C80001363424B1B6B03F00103FB60FB680023F3
:101C9000BB603E4B1B6B3D4A43F0020313633B4B5F
:101CA0001B6B03F00203BB60BB6800237B60374BF8
:101CB0001B6B364A43F040031363344B1B6B03F03A
:101CC00040037B607B6800233B60304B1B6B2F4ADB
:101CD00043F0100313632D4B1B6B03F010033B60A9
:101CE0003B6800224FF4C041294801F013FC002258
:101CF0004FF44E71274801F00DFC002201212648C7
:101D000001F008FC01237B61244BBB610023FB61D4
:101D100007F114031946224801F050FA4FF4C0436A
:101D20007B610123BB610023FB6100233B6207F160
:101D300014031946164801F041FA4FF44E737B61C3
:101D40000123BB610023FB6100233B6207F1140305
:101D50001946104801F032FA01237B610123BB616F
:101D60000023FB6100233B6207F1140319460A4874
:101D700001F024FA00220021062001F0E8F90620F3
:101D800001F001FA00BF2837BD4680BD003802408F
:101D90000018024000040240001002400000111030
:101DA0000000024080B400AF00BFBD465DF8047B78
:101DB0007047000080B483B000AF00237B60104BFD
:101DC0005B6C0F4A43F4804353640D4B5B6C03F42C
:101DD00080437B607B6800233B60094B1B6C084A97
:101DE00043F080531364064B1B6C03F080533B603D
:101DF0003B6800BF0C37BD465DF8047B704700BFF1
:101E00000038024080B58AB000AF786007F1140353
:101E100000221A605A609A60DA601A617B681B6857
:101E20001B4A93422FD100233B611A4B5B6C194A2A
:101E300043F480735364174B5B6C03F480733B6112
:101E40003B690023FB60134B1B6B124A43F00203F8
:101E50001363104B1B6B03F00203FB60FB68012351
:101E60007B610323BB610023FB6107F11403194667
:101E7000094801F0A3F900220021122001F067F9BE
:101E8000122001F080F900BF2837BD4680BD00BF99
:101E900000200140003802400004024080B58AB0B2
:101EA00000AF786007F1140300221A605A609A604C
:101EB000DA601A617B681B68194A93422BD10023B0
:101EC0003B61184B1B6B174A43F002031363154B1E
:101ED0001B6B03F002033B613B69C0237B61122350
:101EE000BB610123FB6103233B6204237B6207F197
:101EF000140319460C4801F061F90023FB60094BFB
:101F00001B6C084A43F400131364064B1B6C03F468
:101F10000013FB60FB6800BF2837BD4680BD00BFD3
:101F200000540040003802400004024080B584B0F4
:101F300000AF78607B681B681C4A934216D100236F
:101F4000FB601B4B5B6C1A4A43F001035364184B54
:101F50005B6C03F00103FB60FB6800220021192089
:101F600001F0F5F8192001F00EF91AE07B681B6802
:101F7000B3F1804F15D10023BB600D4B1B6C0C4A95
:101F800043F0010313640A4B1B6C03F00103BB60B5
:101F9000BB68002200211C2001F0D9F81C2001F0B0
:101FA000F2F800BF1037BD4680BD00BF0000014001
:101FB0000038024080B400AF00BFBD465DF8047B2E
:101FC000704780B400AFFEE780B400AFFEE780B496
:101FD00000AFFEE780B400AFFEE780B400AF00BF03
:101FE000BD465DF8047B704780B400AF00BFBD46BE
:101FF0005DF8047B704780B400AF00BFBD465DF85C
:10200000047B704780B500AF00F01CFA00BF80BDB4
:1020100080B500AF044B1B680133034A13600120F5
:1020200001F0ACFA00BF80BD1C02002080B500AFFB
:10203000024800F00CFC00BF80BD00BF3802002049
:1020400080B500AF4FF40051284801F07CFA4FF4FE
:102050008041264801F077FA254B1B68002B17D0EA
:10206000244B1B680133234A1360234B1B68032B4B
:102070000ED1204B1B68012B0AD1204B1B68002B73
:1020800003D11E4B01221A6002E01C4B00221A6091
:10209000184B1B68312B1AD8154B1B68012B16D90E
:1020A000174B1B680133164A1360134B1B6801332F
:1020B000114A1360104B1B68042B02D10E4B0122F6
:1020C0001A600C4B00221A60094B00221A60094B5F
:1020D0001B68322B05D1074B00221A60044B0022EB
:1020E0001A60084802F0BDFB00BF80BD0018024026
:1020F0001C020020180200201000002024020020F2
:1021000020020020D402002080B500AF1F4B1B68C6
:10211000012B30D11E4B1B68B3F57A7F07D11D4BC5
:102120001B6801331B4A1360194B00221A60194BBC
:102130001B683C2B07D1184B1B680133164A1360F0
:10214000144B00221A60144B1B683C2B07D1134B15
:102150001B680133114A13600F4B00221A600F4BAA
:102160001B68182B02D10D4B00221A60084B1B680C
:102170000133074A13600A4B1B680133084A136096
:10218000084802F06EFB00BF80BD00BF24020020A3
:1021900030020020140000202C0200202802002021
:1021A000340200201403002080B400AF012318463D
:1021B000BD465DF8047B704780B582B000AF7860A3
:1021C000396002F017FF034616221A604FF0FF3302
:1021D00018460837BD4680BD80B582B000AF786034
:1021E0004FF0FF317868FFF7E7FFFEE780B586B074
:1021F00000AFF860B9607A6000237B610AE0AFF35A
:1022000000800146BB685A1CBA60CAB21A707B696A
:1022100001337B617A697B689A42F0DB7B68184600
:102220001837BD4680BD80B586B000AFF860B96094
:102230007A6000237B6109E0BB685A1CBA601B7896
:102240001846AFF300807B6901337B617A697B6854
:102250009A42F1DB7B6818461837BD4680BD80B4D2
:1022600083B000AF78604FF0FF3318460C37BD469F
:102270005DF8047B704780B483B000AF786039604C
:102280003B684FF400525A60002318460C37BD4695
:102290005DF8047B704780B483B000AF78600123A1
:1022A00018460C37BD465DF8047B704780B485B096
:1022B00000AFF860B9607A60002318461437BD4655
:1022C0005DF8047B7047000080B584B000AF786093
:1022D000114B1B68002B02D10F4B104A1A600E4B9A
:1022E0001B68FB600C4B1A687B6813446A46934278
:1022F00007D902F07FFE03460C221A604FF0FF332D
:1023000006E0054B1A687B681344034A1360FB68B8
:1023100018461037BD4680BD5403002070030020CE
:1023200080B400AF084BD3F88830074A43F47003F9
:10233000C2F88830044B4FF000629A6000BFBD467F
:102340005DF8047B704700BF00ED00E0DFF834D09B
:10235000002103E00C4B5B58435004310B480C4BFD
:1023600042189A42F6D30B4A02E0002342F8043B9B
:10237000094B9A42F9D3FFF7D3FF02F041FEFFF772
:1023800091FA7047000003201C8300080000002021
:10239000F4010020F40100206C030020FEE700009F
:1023A00080B500AF0E4B1B680D4A43F400731360F9
:1023B0000B4B1B680A4A43F480631360084B1B688D
:1023C000074A43F480731360032000F0B5FE002039
:1023D00000F008F8FFF7EEFC0023184680BD00BFB0
:1023E000003C024080B582B000AF7860124B1A68A2
:1023F000124B1B7819464FF47A73B3FBF1F3B2FB1F
:10240000F3F3184600F0CDFE0346002B01D0012364
:102410000EE07B680F2B0AD8002279684FF0FF305E
:1024200000F095FE064A7B681360002300E001235C
:1024300018460837BD4680BD180000202000002047
:102440001C00002080B400AF064B1B781A46064BD8
:102450001B681344044A136000BFBD465DF8047B4B
:10246000704700BF200000205803002080B400AF58
:10247000034B1B681846BD465DF8047B704700BFE0
:102480005803002080B584B000AF7860FFF7EEFFFE
:10249000B8607B68FB60FB68B3F1FF3F05D00A4B77
:1024A0001B781A46FB681344FB6000BFFFF7DEFF92
:1024B0000246BB68D31AFA689A42F7D800BF00BF39
:1024C0001037BD4680BD00BF2000002080B584B01D
:1024D00000AF78600023FB737B68002B01D10123E0
:1024E00033E07B681B6C002B09D17868FFF78AFC0E
:1024F0007B6800225A647B68002283F83C207B685A
:102500001B6C03F01003002B18D17B681B6C23F4A9
:10251000885323F0020343F002027B681A64786850
:1025200000F034FC7B6800225A647B681B6C23F04B
:10253000030343F001027B681A6401E00123FB738B
:102540007B68002283F83C20FB7B18461037BD4691
:1025500080BD000080B485B000AF78600023BB6010
:102560007B6893F83C30012B01D10223A5E07B6806
:10257000012283F83C207B681B689B6803F0010301
:10258000012B18D07B681B689A687B681B6842F037
:1025900001029A604C4B1B684C4AA2FB03239A0C25
:1025A00013465B001344BB6002E0BB68013BBB60A9
:1025B000BB68002BF9D17B681B689B6803F00103A3
:1025C000012B79D17B681B6C23F4E06323F00103BA
:1025D00043F480727B681A647B681B685B6803F451
:1025E0008063002B07D07B681B6C23F4405343F4BB
:1025F00080527B681A647B681B6C03F48053B3F5CC
:10260000805F06D17B685B6C23F006027B685A64AE
:1026100002E07B6800225A647B68002283F83C2039
:102620002B4BFB607B681B686FF022021A60FB6813
:102630005B6803F01F03002B2AD17B681B68254AC7
:10264000934215D07B681B68234A934205D1204BE7
:102650005B6803F01F03002B0AD07B681B681F4ACE
:10266000934229D11A4B5B6803F01003002B23D14E
:102670007B681B689B6803F04053002B1CD17B6870
:102680001B689A687B681B6842F080429A6013E07E
:102690007B681B680F4A93420ED17B681B689B685E
:1026A00003F04053002B07D17B681B689A687B6856
:1026B0001B6842F080429A60002318461437BD46DA
:1026C0005DF8047B704700BF1800002083DE1B43C9
:1026D0000023014000200140002101400022014070
:1026E00080B483B000AF78607B6893F83C30012BF6
:1026F00001D1022321E07B68012283F83C207B6822
:102700001B689A687B681B6822F001029A607B68EC
:102710001B689B6803F00103002B09D17B681B6CCD
:1027200023F4885323F0010343F001027B681A6409
:102730007B68002283F83C20002318460C37BD46F6
:102740005DF8047B704780B584B000AF7860396075
:102750000023FB607B681B689B6803F48063B3F510
:10276000806F13D17B681B689B6803F48073B3F59B
:10277000807F0BD17B681B6C43F020027B681A645E
:102780007B68002283F83C2001235CE0FFF76EFEAB
:10279000F8601AE03B68B3F1FF3F16D03B68002BAE
:1027A00007D0FFF763FE0246FB68D31A3A689A42E5
:1027B0000BD27B681B6C43F004027B681A647B6855
:1027C000002283F83C2003233DE07B681B681B68E4
:1027D00003F00203022BDDD17B681B686FF012024D
:1027E0001A607B681B6C43F400727B681A647B6818
:1027F0001B689B6803F04053002B23D17B681B7E32
:10280000002B1FD17B681B68DB6A03F47003002B6D
:1028100006D07B681B689B6803F48063002B11D192
:102820007B681B6C23F480727B681A647B681B6C6A
:1028300003F48053002B05D17B681B6C43F001022D
:102840007B681A64002318461037BD4680BD80B5EA
:1028500084B000AF78600023FB600023BB607B681E
:102860001B681B6803F00203022B0CBF012300232B
:10287000DBB2FB607B681B685B6803F02003202BE6
:102880000CBF01230023DBB2BB60FB68002B49D0E7
:10289000BB68002B46D07B681B6C03F01003002B39
:1028A00005D17B681B6C43F400727B681A647B68FB
:1028B0001B689B6803F04053002B2BD17B681B7E69
:1028C000002B27D17B681B68DB6A03F47003002BA5
:1028D00006D07B681B689B6803F48063002B19D1CA
:1028E0007B681B685A687B681B6822F020025A606C
:1028F0007B681B6C23F480727B681A647B681B6C9A
:1029000003F48053002B05D17B681B6C43F001025C
:102910007B681A64786800F0E8F87B681B686FF0E1
:1029200012021A607B681B681B6803F00403042B07
:102930000CBF01230023DBB2FB607B681B685B6874
:1029400003F08003802B0CBF01230023DBB2BB60AC
:10295000FB68002B57D0BB68002B54D07B681B6CE6
:1029600003F01003002B05D17B681B6C43F400526D
:102970007B681A647B681B689B6803F44013002B18
:1029800039D17B681B689B6B03F44013002B06D086
:102990007B681B689B6803F48063002B2BD17B68EA
:1029A0001B685B6803F48063002B24D17B681B6881
:1029B0009B6803F04053002B1DD17B681B7E002BCE
:1029C00019D17B681B685A687B681B6822F08002FB
:1029D0005A607B681B6C23F480527B681A647B68A6
:1029E0001B6C03F48073002B05D17B681B6C43F0D8
:1029F00001027B681A64786800F0C4FA7B681B687F
:102A00006FF00C021A607B681B681B6803F00103FF
:102A1000012B0CBF01230023DBB2FB607B681B682A
:102A20005B6803F04003402B0CBF01230023DBB2A3
:102A3000BB60FB68002B17D0BB68002B14D07B68F1
:102A40001B681B6803F00103012B0DD17B681B6C15
:102A500043F480327B681A64786800F050F87B6831
:102A60001B686FF001021A607B681B681B6803F02B
:102A70002003202B0CBF01230023DBB2FB607B680B
:102A80001B685B6803F08063B3F1806F0CBF0123A8
:102A90000023DBB2BB60FB68002B15D0BB68002BAA
:102AA00012D07B685B6C43F002027B685A647B68DF
:102AB0001B686FF020021A60786800F02AF87B68C3
:102AC0001B686FF020021A6000BF1037BD4680BD42
:102AD00080B483B000AF78607B681B68DB6C1846FD
:102AE0000C37BD465DF8047B704780B483B000AFFF
:102AF000786000BF0C37BD465DF8047B704780B43A
:102B000083B000AF786000BF0C37BD465DF8047B32
:102B1000704780B483B000AF786000BF0C37BD460B
:102B20005DF8047B7047000080B485B000AF78602A
:102B300039600023BB607B6893F83C30012B01D1E6
:102B4000022313E17B68012283F83C203B681B6869
:102B5000092B25D97B681B68D9683B681B689BB229
:102B60001A4613465B0013441E3B072202FA03F386
:102B7000DA437B681B680A40DA607B681B68D968A7
:102B80003B689A683B681B689BB2184603465B002B
:102B900003441E3B9A407B681B680A43DA6022E0CC
:102BA0007B681B6819693B681B689BB21A46134611
:102BB0005B001344072202FA03F3DA437B681B68C5
:102BC0000A401A617B681B6819693B689A683B6810
:102BD0001B689BB2184603465B0003449A407B681F
:102BE0001B680A431A613B685B68062B24D87B6824
:102BF0001B68596B3B685A6813469B001344053B9E
:102C00001F2202FA03F3DA437B681B680A405A6307
:102C10007B681B68596B3B681B689BB218463B6816
:102C20005A6813469B001344053B00FA03F27B6885
:102C30001B680A435A634CE03B685B680C2B24D842
:102C40007B681B68196B3B685A6813469B001344EA
:102C5000233B1F2202FA03F3DA437B681B680A4016
:102C60001A637B681B68196B3B681B689BB218462C
:102C70003B685A6813469B001344233B00FA03F257
:102C80007B681B680A431A6323E07B681B68D96A68
:102C90003B685A6813469B001344413B1F2202FACB
:102CA00003F3DA437B681B680A40DA627B681B68BF
:102CB000D96A3B681B689BB218463B685A68134642
:102CC0009B001344413B00FA03F27B681B680A43F4
:102CD000DA62294BFB607B681B68284A93420FD15C
:102CE0003B681B68122B0BD1FB685B6823F4000266
:102CF000FB685A60FB685B6843F48002FB685A60BB
:102D00007B681B681D4A93422BD13B681B681C4A99
:102D1000934203D03B681B68112B22D1FB685B6890
:102D200023F48002FB685A60FB685B6843F400028E
:102D3000FB685A603B681B68114A934211D1114BE2
:102D40001B68114AA2FB03239A0C13469B001344F1
:102D50005B00BB6002E0BB68013BBB60BB68002B53
:102D6000F9D17B68002283F83C20002318461437F1
:102D7000BD465DF8047B7047002301400020014000
:102D8000120000101800002083DE1B4380B485B0C1
:102D900000AF7860794BFB60FB685B6823F44032DE
:102DA000FB685A60FB685A687B685B681A43FB687B
:102DB0005A607B681B685A687B681B6822F48072C3
:102DC0005A607B681B6859687B681B691A027B68BC
:102DD0001B680A435A607B681B685A687B681B68DB
:102DE00022F040725A607B681B6859687B689A6859
:102DF0007B681B680A435A607B681B689A687B681B
:102E00001B6822F400629A607B681B6899687B6883
:102E1000DA687B681B680A439A607B689B6A584A39
:102E2000934222D07B681B689A687B681B6822F0FB
:102E300070629A607B681B6899687B689A6A7B6895
:102E40001B680A439A607B681B689A687B681B68EA
:102E500022F040529A607B681B6899687B68DA6A46
:102E60007B681B680A439A600FE07B681B689A685E
:102E70007B681B6822F070629A607B681B689A68A6
:102E80007B681B6822F040529A607B681B689A68D6
:102E90007B681B6822F002029A607B681B68996855
:102EA0007B681B7E5A007B681B680A439A607B68BC
:102EB00093F82030002B1BD07B681B685A687B6816
:102EC0001B6842F400625A607B681B685A687B6822
:102ED0001B6822F460425A607B681B6859687B68F3
:102EE0005B6A013B5A037B681B680A435A6007E030
:102EF0007B681B685A687B681B6822F400625A6012
:102F00007B681B68DA6A7B681B6822F47002DA62ED
:102F10007B681B68D96A7B68DB69013B1A057B68A3
:102F20001B680A43DA627B681B689A687B681B68C7
:102F300022F400729A607B681B6899687B6893F83A
:102F400030305A027B681B680A439A607B681B68B2
:102F50009A687B681B6822F480629A607B681B68B1
:102F600099687B685B699A027B681B680A439A6070
:102F700000BF1437BD465DF8047B70470023014055
:102F80000100000F80B483B000AF786000BF0C3741
:102F9000BD465DF8047B704780B485B000AF7860B3
:102FA0007B6803F00703FB600C4BDB68BB60BA680F
:102FB0004FF6FF031340BB60FB681A02BB68134364
:102FC00043F0BF6343F40033BB60044ABB68D36083
:102FD00000BF1437BD465DF8047B704700ED00E08C
:102FE00080B400AF044BDB681B0A03F007031846EC
:102FF000BD465DF8047B704700ED00E080B483B00F
:1030000000AF0346FB7197F90730002B0BDBFB7910
:1030100003F01F02074997F907305B09012000FA06
:1030200002F241F8232000BF0C37BD465DF8047B57
:10303000704700BF00E100E080B483B000AF0346FA
:103040003960FB7197F90730002B0ADB3B68DAB275
:103050000C4997F907301201D2B20B4483F80023D0
:103060000AE03B68DAB20849FB7903F00F03043B3E
:103070001201D2B20B441A7600BF0C37BD465DF880
:10308000047B704700E100E000ED00E080B489B00F
:1030900000AFF860B9607A60FB6803F00703FB617A
:1030A000FB69C3F10703042B28BF0423BB61FB6941
:1030B0000433062B02D9FB69033B00E000237B614C
:1030C0004FF0FF32BB6902FA03F3DA43BB681A40E0
:1030D0007B699A404FF0FF317B6901FA03F3D943D2
:1030E0007B680B40134318462437BD465DF8047BCC
:1030F0007047000080B582B000AF78607B68013B0C
:10310000B3F1807F01D301230FE00A4A7B68013BC2
:1031100053600F214FF0FF30FFF78EFF054B002269
:103120009A60044B07221A60002318460837BD46F0
:1031300080BD00BF10E000E080B582B000AF7860D5
:103140007868FFF729FF00BF0837BD4680BD80B50E
:1031500086B000AF0346B9607A60FB7300237B61E1
:10316000FFF73EFF78617A68B9687869FFF78EFFEC
:10317000024697F90F3011461846FFF75DFF00BF72
:103180001837BD4680BD80B582B000AF0346FB71E5
:1031900097F907301846FFF731FF00BF0837BD46E3
:1031A00080BD80B582B000AF78607868FFF7A2FF7D
:1031B000034618460837BD4680BD000080B489B07C
:1031C00000AF7860396000237B6100233B610023FE
:1031D000BB610023FB6177E10122FB6902FA03F383
:1031E0007B613B681B687A6913403B613A697B6984
:1031F0009A4240F066813B685B68012B0BD03B68CC
:103200005B68022B07D03B685B68112B03D03B68DF
:103210005B68122B30D17B689B68BB61FB695B00EC
:10322000032202FA03F3DB43BA691340BB613B6834
:10323000DA68FB695B0002FA03F3BA691343BB6106
:103240007B68BA699A607B685B68BB610122FB6935
:1032500002FA03F3DB43BA691340BB613B685B6866
:103260001B0903F00102FB6902FA03F3BA69134375
:10327000BB617B68BA695A607B68DB68BB61FB69CC
:103280005B00032202FA03F3DB43BA691340BB611C
:103290003B689A68FB695B0002FA03F3BA6913435F
:1032A000BB617B68BA69DA603B685B68022B03D05C
:1032B0003B685B68122B23D1FB69DA087B68083214
:1032C00053F82230BB61FB6903F007039B000F2218
:1032D00002FA03F3DB43BA691340BB613B681A6926
:1032E000FB6903F007039B0002FA03F3BA69134377
:1032F000BB61FB69DA087B680832B96943F82210C0
:103300007B681B68BB61FB695B00032202FA03F365
:10331000DB43BA691340BB613B685B6803F003029F
:10332000FB695B0002FA03F3BA691343BB617B6874
:10333000BA691A603B685B6803F08053002B00F0A9
:10334000C0800023FB60664B5B6C654A43F480439E
:103350005364634B5B6C03F48043FB60FB68614A1E
:10336000FB699B08023352F82330BB61FB6903F011
:1033700003039B000F2202FA03F3DB43BA691340F5
:10338000BB617B68584A934237D07B68574A934267
:1033900031D07B68564A93422BD07B68554A934282
:1033A00025D07B68544A93421FD07B68534A93428E
:1033B00019D07B68524A934213D07B68514A93429A
:1033C0000DD07B68504A934207D07B684F4A9342A6
:1033D00001D1092312E00A2310E008230EE007239D
:1033E0000CE006230AE0052308E0042306E003239B
:1033F00004E0022302E0012300E00023FA6902F066
:10340000030292009340BA691343BB613549FB69DB
:103410009B080233BA6941F823203D4B1B68BB610E
:103420003B69DB43BA691340BB613B685B6803F4EB
:103430008033002B03D0BA693B691343BB61344A24
:10344000BB691360324B5B68BB613B69DB43BA69A4
:103450001340BB613B685B6803F40033002B03D06F
:10346000BA693B691343BB61294ABB695360284B66
:103470009B68BB613B69DB43BA691340BB613B6836
:103480005B6803F48013002B03D0BA693B691343D4
:10349000BB611F4ABB6993601D4BDB68BB613B6925
:1034A000DB43BA691340BB613B685B6803F40013FC
:1034B000002B03D0BA693B691343BB61144ABB6953
:1034C000D360FB690133FB61FB690F2B7FF684AE90
:1034D00000BF00BF2437BD465DF8047B704700BFC6
:1034E0000038024000380140000002400004024061
:1034F00000080240000C024000100240001402408C
:1035000000180240001C024000200240002402403B
:10351000003C014080B483B000AF78600B467B80F4
:1035200013467B707B78002B03D07A887B689A6186
:1035300003E07B881A047B689A6100BF0C37BD46A4
:103540005DF8047B704780B483B000AF78600B46B1
:103550007B807B685A697B881A407B889A4204D1B9
:103560007B881A047B689A6102E07A887B689A619A
:1035700000BF0C37BD465DF8047B704780B582B054
:1035800000AF0346FB80084B5A69FB881340002BB1
:1035900006D0054AFB885361FB88184600F006F800
:1035A00000BF0837BD4680BD003C014080B483B0F9
:1035B00000AF0346FB8000BF0C37BD465DF8047BBF
:1035C0007047000080B584B000AF78607B68002B46
:1035D00001D101232BE17B6893F83D30DBB2002B56
:1035E00006D17B68002283F83C207868FEF756FC01
:1035F0007B68242283F83D207B681B681A687B68FF
:103600001B6822F001021A607B681B681A687B68DD
:103610001B6842F400421A607B681B681A687B686A
:103620001B6822F400421A6001F0B8F8F8607B6869
:103630005B68814A934207D8FB68804A934294BFF3
:1036400001230023DBB206E0FB687D4A934294BF6E
:1036500001230023DBB2002B01D00123E7E0FB684C
:10366000784AA2FB03239B0CBB607B681B685B68EA
:1036700023F03F017B681B68BA680A435A607B6885
:103680001B681B6A23F03F017B685B686A4A9342B0
:1036900002D8BB68013309E0BB684FF4967202FBA5
:1036A00003F3694AA2FB03239B0901337A6812687A
:1036B0000B4313627B681B68DB6923F44F4222F0E3
:1036C000FF027B685B685C498B4219D8FB68591E16
:1036D0007B685B685B00B1FBF3F3591C40F6FC733D
:1036E0000B40002B0AD0FB68591E7B685B685B00AF
:1036F000B1FBF3F30133C3F30B0351E004234FE0B9
:103700007B689B68002B11D1FB68581E7B68596849
:103710000B465B000B44B0FBF3F30133C3F30B0325
:10372000002B0CBF01230023DBB212E0FB68581E04
:103730007B6859680B469B000B4499000B44B0FB17
:10374000F3F30133C3F30B03002B0CBF012300235E
:10375000DBB2002B01D0012322E07B689B68002BA9
:103760000ED1FB68581E7B6859680B465B000B4402
:10377000B0FBF3F30133C3F30B0343F400430FE057
:10378000FB68581E7B6859680B469B000B449900E8
:103790000B44B0FBF3F30133C3F30B0343F4404397
:1037A000796809681343CB617B681B681B6823F049
:1037B000C0017B68DA697B681B6A1A437B681B68F7
:1037C0000A431A607B681B689B6823F4034323F059
:1037D000FF037A6811697A68D26811437A681268BF
:1037E0000B4393607B681B68DB6823F0FF017B68F9
:1037F0005A697B689B691A437B681B680A43DA60D5
:103800007B681B681A687B681B6842F001021A60BB
:103810007B6800221A647B68202283F83D207B6845
:1038200000221A637B68002283F83E20002318469A
:103830001037BD4680BD00BFA08601007F841E00FA
:10384000FF083D0083DE1B43D34D621080B588B076
:1038500002AFF8607A601A460B467B8113463B81C3
:10386000FEF704FE7861FB6893F83D30DBB2202B55
:1038700040F0E0807B690093192301227049F868C9
:1038800000F064F90346002B01D00223D3E0FB686B
:1038900093F83C30012B01D10223CCE0FB680122DC
:1038A00083F83C20FB681B681B6803F00103012BB5
:1038B00007D0FB681B681A68FB681B6842F00102AE
:1038C0001A60FB681B681A68FB681B6822F40062B8
:1038D0001A60FB68212283F83D20FB68102283F8E0
:1038E0003E20FB6800221A64FB687A685A62FB6813
:1038F0003A895A85FB685B8D9AB2FB681A85FB682A
:10390000504ADA6279897B693A6AF86800F09CF873
:103910000346002B01D001238DE000233B61FB68AF
:103920001B685B693B61FB681B689B693B613B698A
:1039300066E07A69396AF86800F0DEF90346002B20
:103940000DD0FB681B6C042B07D1FB681B681A6841
:10395000FB681B6842F400721A6001236BE0FB688D
:103960005B6A1A78FB681B681A61FB685B6A5A1C01
:10397000FB685A62FB685B8D9BB2013B9AB2FB68A5
:103980005A85FB681B8D013B9AB2FB681A85FB6860
:103990001B685B6903F00403042B1BD1FB681B8DC0
:1039A000002B17D0FB685B6A1A78FB681B681A61EA
:1039B000FB685B6A5A1CFB685A62FB685B8D9BB2B2
:1039C000013B9AB2FB685A85FB681B8D013B9AB29A
:1039D000FB681A857A69396AF86800F0CEF90346FF
:1039E000002B0DD0FB681B6C042B07D1FB681B68F8
:1039F0001A68FB681B6842F400721A6001231AE01F
:103A0000FB681B8D002B94D1FB681B681A68FB6850
:103A10001B6842F400721A60FB68202283F83D2084
:103A2000FB68002283F83E20FB68002283F83C20DC
:103A3000002300E0022318461837BD4680BD00BFB2
:103A4000020010000000FFFF80B588B002AFF860F0
:103A50007A603B600B467B81FB68DB6A7B617B693C
:103A6000082B06D07B69012B03D07B6913F5803FBF
:103A700008D1FB681B681A68FB681B6842F48072F7
:103A80001A600BE0FB681B6B122B07D1FB681B68ED
:103A90001A68FB681B6842F480721A603B680093E6
:103AA0007B6800224FF00111F86800F04FF80346E0
:103AB000002B0DD0FB681B681B6803F48073B3F503
:103AC000807F03D1FB684FF400721A64032335E052
:103AD000FB681B69B3F5804F08D17B89DBB21A46BE
:103AE000FB681B6802F0FE021A611BE07B89DB1198
:103AF000DBB203F00603DBB263F00F03DAB2FB685C
:103B00001B681A613B687A680E49F86800F075F81E
:103B10000346002B01D0012310E07B89DAB2FB6859
:103B20001B681A613B687A680749F86800F065F815
:103B30000346002B01D0012300E00023184618376C
:103B4000BD4680BD080001000200010080B584B0C0
:103B500000AFF860B9603B601346FB7125E03B683D
:103B6000B3F1FF3F21D0FEF781FC0246BB69D31AB7
:103B70003A689A4202D33B68002B16D1FB680022B8
:103B80001A63FB68202283F83D20FB68002283F83B
:103B90003E20FB681B6C43F02002FB681A64FB6844
:103BA000002283F83C20012323E0BB681B0CDBB21E
:103BB000012B0DD1FB681B685B69DA43BB681340BE
:103BC0009BB2002B0CBF01230023DBB21A460CE092
:103BD000FB681B689B69DA43BB6813409BB2002BF0
:103BE0000CBF01230023DBB21A46FB799A42B6D000
:103BF000002318461037BD4680BD80B584B000AFA5
:103C0000F860B9607A603B6051E0FB681B685B69F3
:103C100003F48063B3F5806F23D1FB681B681A68D7
:103C2000FB681B6842F400721A60FB681B686FF443
:103C300080625A61FB6800221A63FB68202283F8C5
:103C40003D20FB68002283F83E20FB681B6C43F09C
:103C50000402FB681A64FB68002283F83C200123FD
:103C600046E07B68B3F1FF3F21D0FEF7FFFB024641
:103C70003B68D31A7A689A4202D37B68002B16D12C
:103C8000FB6800221A63FB68202283F83D20FB6852
:103C9000002283F83E20FB681B6C43F02002FB6887
:103CA0001A64FB68002283F83C20012320E0BB68F3
:103CB0001B0CDBB2012B0CD1FB681B685B69DA4380
:103CC000BB6813409BB2002B14BF01230023DBB25F
:103CD0000BE0FB681B689B69DA43BB6813409BB22F
:103CE000002B14BF01230023DBB2002B8DD1002356
:103CF00018461037BD4680BD80B584B000AFF8606F
:103D0000B9607A602DE0F86800F078F80346002B7F
:103D100001D001232DE0BB68B3F1FF3F21D0FEF7B6
:103D2000A5FB02467B68D31ABA689A4202D3BB68E5
:103D3000002B16D1FB6800221A63FB68202283F84F
:103D40003D20FB68002283F83E20FB681B6C43F09B
:103D50002002FB681A64FB68002283F83C200123E0
:103D600007E0FB681B685B6903F08003802BCAD106
:103D7000002318461037BD4680BD80B584B000AF23
:103D8000F860B9607A602DE0F86800F037F8034613
:103D9000002B01D001232DE0BB68B3F1FF3F21D000
:103DA000FEF764FB02467B68D31ABA689A4202D3D4
:103DB000BB68002B16D1FB6800221A63FB68202227
:103DC00083F83D20FB68002283F83E20FB681B6CD3
:103DD00043F02002FB681A64FB68002283F83C2051
:103DE000012307E0FB681B685B6903F00403042BF5
:103DF000CAD1002318461037BD4680BD80B483B0B9
:103E000000AF78607B681B685B6903F48063B3F57F
:103E1000806F1BD17B681B686FF480625A617B687E
:103E200000221A637B68202283F83D207B680022F1
:103E300083F83E207B681B6C43F004027B681A64A5
:103E40007B68002283F83C20012300E00023184611
:103E50000C37BD465DF8047B704780B483B000AF7B
:103E6000786039607B6893F83D30DBB2202B29D134
:103E70007B68242283F83D207B681B681A687B6876
:103E80001B6822F001021A607B681B685A6A7B6813
:103E90001B6822F010025A627B681B68596A7B68B3
:103EA0001B683A680A435A627B681B681A687B6819
:103EB0001B6842F001021A607B68202283F83D20D3
:103EC000002300E0022318460C37BD465DF8047B52
:103ED000704780B485B000AF786039600023FB8103
:103EE0007B6893F83D30DBB2202B2AD17B682422FB
:103EF00083F83D207B681B681A687B681B6822F08A
:103F000001021A607B681B685B6AFB81FB8923F0F6
:103F10000F03FB813B689AB2FB891343FB817B68EB
:103F20001B68FA895A627B681B681A687B681B6881
:103F300042F001021A607B68202283F83D200023B2
:103F400000E0022318461437BD465DF8047B704735
:103F500080B586B000AF78607B68002B01D101236B
:103F60005EE27B681B6803F00103002B75D0884B71
:103F70009B6803F00C03042B0CD0854B9B6803F06B
:103F80000C03082B12D1824B5B6803F48003B3F55A
:103F9000800F0BD17E4B1B6803F40033002B5BD0EA
:103FA0007B685B68002B57D1012339E27B685B6833
:103FB000B3F5803F06D1764B1B68754A43F48033D6
:103FC00013601DE07B685B68B3F5A02F0CD1704BCC
:103FD0001B686F4A43F4802313606D4B1B686C4A67
:103FE00043F4803313600BE0694B1B68684A23F489
:103FF00080331360664B1B68654A23F4802313608B
:104000007B685B68002B13D0FEF730FA386108E05C
:10401000FEF72CFA02463B69D31A642B01D903231D
:10402000FEE15B4B1B6803F40033002BF0D014E07F
:10403000FEF71CFA386108E0FEF718FA02463B6901
:10404000D31A642B01D90323EAE1514B1B6803F413
:104050000033002BF0D100E000BF7B681B6803F049
:104060000203002B63D04A4B9B6803F00C03002B28
:104070000BD0474B9B6803F00C03082B1CD1444B1F
:104080005B6803F48003002B16D1414B1B6803F0DF
:104090000203002B05D07B68DB68012B01D00123D4
:1040A000BEE13B4B1B6823F0F8027B681B69DB0019
:1040B000374913430B603AE07B68DB68002B20D064
:1040C000344B01221A60FEF7D1F9386108E0FEF79F
:1040D000CDF902463B69D31A022B01D903239FE194
:1040E0002B4B1B6803F00203002BF0D0284B1B68FE
:1040F00023F0F8027B681B69DB00254913430B6042
:1041000015E0244B00221A60FEF7B0F9386108E090
:10411000FEF7ACF902463B69D31A022B01D90323FF
:104120007EE11B4B1B6803F00203002BF0D17B6880
:104130001B6803F00803002B36D07B685B69002BFB
:1041400016D0154B01221A60FEF790F9386108E08D
:10415000FEF78CF902463B69D31A022B01D90323DF
:104160005EE10B4B5B6F03F00203002BF0D01BE012
:10417000094B00221A60FEF779F938610EE0FEF76C
:1041800075F902463B69D31A022B07D9032347E18D
:104190000038024000004742800E4742884B5B6F68
:1041A00003F00203002BEAD17B681B6803F00403D1
:1041B000002B00F097800023FB75814B1B6C03F0F4
:1041C0008053002B0FD10023BB607D4B1B6C7C4ABE
:1041D00043F0805313647A4B1B6C03F08053BB6035
:1041E000BB680123FB75774B1B6803F48073002BBE
:1041F00018D1744B1B68734A43F480731360FEF745
:1042000035F9386108E0FEF731F902463B69D31A07
:10421000022B01D9032303E16A4B1B6803F480736B
:10422000002BF0D07B689B68012B06D1644B1B6F81
:10423000634A43F0010313671CE07B689B68052B0E
:104240000CD15F4B1B6F5E4A43F0040313675C4B5A
:104250001B6F5B4A43F0010313670BE0584B1B6F66
:10426000574A23F001031367554B1B6F544A23F041
:10427000040313677B689B68002B15D0FEF7F6F8E4
:1042800038610AE0FEF7F2F802463B69D31A41F2C0
:104290008832934201D90323C2E0494B1B6F03F0DC
:1042A0000203002BEED014E0FEF7E0F838610AE0DC
:1042B000FEF7DCF802463B69D31A41F2883293429A
:1042C00001D90323ACE03E4B1B6F03F00203002B2C
:1042D000EED1FB7D012B05D1394B1B6C384A23F005
:1042E000805313647B689B69002B00F09880344BEB
:1042F0009B6803F00C03082B5CD07B689B69022B46
:1043000041D1314B00221A60FEF7B0F8386108E065
:10431000FEF7ACF802463B69D31A022B01D90323FE
:104320007EE0274B1B6803F00073002BF0D17B6805
:10433000DA697B681B6A1A437B685B6A9B011A43D4
:104340007B689B6A5B08013B1B041A437B68DB6A42
:104350001B061B4913434B601B4B01221A60FEF7DF
:1043600085F8386108E0FEF781F802463B69D31A08
:10437000022B01D9032353E0114B1B6803F0007398
:10438000002BF0D04BE0104B00221A60FEF76EF8C5
:10439000386108E0FEF76AF802463B69D31A022B3F
:1043A00001D903233CE0064B1B6803F00073002B8C
:1043B000F0D134E07B689B69012B07D101232FE00A
:1043C000003802400070004060004742164B5B68B6
:1043D000FB60FB6803F480027B68DB699A421CD1B6
:1043E000FB6803F03F027B681B6A9A4215D1FA68AA
:1043F00047F6C07313407A68526A93420DD1FB6846
:1044000003F440327B689B6A9A4206D1FB6803F052
:1044100070627B68DB6A9A4201D0012300E00023CE
:1044200018461837BD4680BD0038024080B584B0BC
:1044300000AF786039607B68002B01D10123CCE0AC
:10444000684B1B6803F00F033A689A420CD9654B1E
:104450003A68D2B21A70634B1B6803F00F033A68D4
:104460009A4201D00123B8E07B681B6803F0020385
:10447000002B20D07B681B6803F00403002B05D0C1
:10448000594B9B68584A43F4E05393607B681B6820
:1044900003F00803002B05D0534B9B68524A43F4AA
:1044A00060439360504B9B6823F0F0027B689B68ED
:1044B0004D4913438B607B681B6803F00103002B9D
:1044C00044D07B685B68012B07D1474B1B6803F422
:1044D0000033002B19D101237FE07B685B68022B3E
:1044E00003D07B685B68032B07D13F4B1B6803F04D
:1044F0000073002B09D101236FE03B4B1B6803F0D5
:104500000203002B01D1012367E0374B9B6823F0A6
:1045100003027B685B68344913438B60FDF7A6FF99
:10452000F8600AE0FDF7A2FF0246FB68D31A41F2E9
:104530008832934201D903234FE02B4B9B6803F051
:104540000C027B685B689B009A42EBD1254B1B6891
:1045500003F00F033A689A420CD2224B3A68D2B267
:104560001A70204B1B6803F00F033A689A4201D07F
:10457000012332E07B681B6803F00403002B08D0A2
:10458000194B9B6823F4E0527B68DB6816491343A0
:104590008B607B681B6803F00803002B09D0124B6B
:1045A0009B6823F460427B681B69DB000E49134360
:1045B0008B6000F021F802460B4B9B681B0903F04F
:1045C0000F030A49CB5C22FA03F3094A1360094B33
:1045D0001B681846FDF706FF002318461037BD4636
:1045E00080BD00BF003C024000380240187F000838
:1045F000180000201C0000202DE9B04F90B000AF43
:1046000000237B630023FB6300233B630023BB6326
:10461000594B9B6803F00C03082B0DD0082B00F2BC
:10462000A180002B02D0042B03D09BE0534BBB6333
:104630009BE0534BBB6398E04F4B5B6803F03F0339
:104640007B634D4B5B6803F48003002B28D04A4BFF
:104650005B689B0900223B627A623B6AC3F30800F5
:104660000021474B03FB01F2002300FB03F313443B
:10467000434AA0FB0212FA620A46BA62FA6A13447B
:10468000FB627B6B0022BB61FA61D7E90623D7E9A5
:104690000A01FCF7E9FA02460B461346FB6353E0B6
:1046A000354B5B689B0900223B617A613B69C3F330
:1046B000080A4FF0000B52465B464FF000004FF0E7
:1046C0000001590141EAD261500102460B46B2EBAA
:1046D0000A0863EB0B094FF000024FF000034FEAAA
:1046E000891343EA98634FEA8812B2EB080463EB3C
:1046F00009054FF000024FF00003EB0043EA54734A
:10470000E20014461D4614EB0A033B6045EB0B0325
:104710007B604FF000024FF00003D7E900452946C7
:104720008B02214643EA915321468A0210461946DC
:104730007B6B0022BB60FA60D7E90223FCF794FA96
:1047400002460B461346FB630B4B5B681B0C03F0E6
:10475000030301335B003B63FA6B3B6BB2FBF3F388
:10476000BB6302E0054BBB6300BFBB6B1846403721
:10477000BD46BDE8B08F00BF003802400024F40001
:1047800040787D0180B400AF034B1B681846BD46DE
:104790005DF8047B704700BF1800002080B500AFB3
:1047A000FFF7F0FF0246054B9B689B0A03F00703E7
:1047B0000349CB5C22FA03F3184680BD003802405F
:1047C000287F000880B582B000AF78607B68002B3E
:1047D00001D101231DE07B6893F83D30DBB2002B53
:1047E00006D17B68002283F83C207868FDF79EFBA9
:1047F0007B68022283F83D207B681A687B6804335B
:104800001946104600F02CFA7B68012283F83D20FF
:10481000002318460837BD4680BD80B485B000AF80
:1048200078607B681B68DA687B681B6842F001026D
:10483000DA607B681B689B6803F00703FB60FB681A
:10484000062B07D07B681B681A687B681B6842F0E0
:1048500001021A60002318461437BD465DF8047B38
:10486000704780B582B000AF78607B681B681B69B9
:1048700003F00203022B22D17B681B68DB6803F084
:104880000203022B1BD17B681B686FF002021A61C6
:104890007B6801221A777B681B689B6903F003031E
:1048A000002B03D0786800F0BCF905E0786800F0D0
:1048B000AEF9786800F0BFF97B6800221A777B6850
:1048C0001B681B6903F00403042B22D17B681B685F
:1048D000DB6803F00403042B1BD17B681B686FF0BB
:1048E00004021A617B6802221A777B681B689B6945
:1048F00003F44073002B03D0786800F092F905E0D0
:10490000786800F084F9786800F095F97B680022F7
:104910001A777B681B681B6903F00803082B22D1F8
:104920007B681B68DB6803F00803082B1BD17B68DE
:104930001B686FF008021A617B6804221A777B6893
:104940001B68DB6903F00303002B03D0786800F0D9
:1049500068F905E0786800F05AF9786800F06BF9BA
:104960007B6800221A777B681B681B6903F01003C1
:10497000102B22D17B681B68DB6803F01003102B1F
:104980001BD17B681B686FF010021A617B680822DC
:104990001A777B681B68DB6903F44073002B03D034
:1049A000786800F03EF905E0786800F030F9786842
:1049B00000F041F97B6800221A777B681B681B694D
:1049C00003F00103012B0ED17B681B68DB6803F049
:1049D0000103012B07D17B681B686FF001021A618C
:1049E000786800F00AF97B681B681B6903F0800394
:1049F000802B0ED17B681B68DB6803F08003802B63
:104A000007D17B681B686FF080021A61786800F03C
:104A1000E7FA7B681B681B6903F04003402B0ED14B
:104A20007B681B68DB6803F04003402B07D17B6881
:104A30001B686FF040021A61786800F006F97B6825
:104A40001B681B6903F02003202B0ED17B681B68B9
:104A5000DB6803F02003202B07D17B681B686FF015
:104A600020021A61786800F0B1FA00BF0837BD462D
:104A700080BD80B584B000AF786039607B6893F802
:104A80003C30012B01D10223B3E07B68012283F883
:104A90003C207B68022283F83D207B681B689B6872
:104AA000FB60FB6823F07703FB60FB6823F47F4324
:104AB000FB607B681B68FA689A603B681B68B3F50B
:104AC000005F3ED0B3F5005F00F28780B3F5805FF2
:104AD00000F08580B3F5805F7FD8702B1AD0702BE3
:104AE0007BD8602B50D0602B77D8502B3CD0502BEC
:104AF00073D8402B58D0402B6FD8302B64D0302B3C
:104B00006BD8202B60D0202B67D8002B5CD0102BCB
:104B10005AD062E07B6818683B6899683B685A68BD
:104B20003B68DB6800F0B6F97B681B689B68FB603C
:104B3000FB6843F07703FB607B681B68FA689A6048
:104B40004EE07B6818683B6899683B685A683B6828
:104B5000DB6800F09FF97B681B689A687B681B68BC
:104B600042F480429A603BE07B6818683B68596871
:104B70003B68DB681A4600F013F97B681B6850211C
:104B8000184600F06CF92BE07B6818683B685968A0
:104B90003B68DB681A4600F032F97B681B686021CD
:104BA000184600F05CF91BE07B6818683B685968A0
:104BB0003B68DB681A4600F0F3F87B681B6840210D
:104BC000184600F04CF90BE07B681A683B681B68DC
:104BD0001946104600F043F902E000BF00E000BFB4
:104BE0007B68012283F83D207B68002283F83C200B
:104BF000002318461037BD4680BD80B483B000AF97
:104C0000786000BF0C37BD465DF8047B704780B408
:104C100083B000AF786000BF0C37BD465DF8047B01
:104C2000704780B483B000AF786000BF0C37BD46DA
:104C30005DF8047B704780B483B000AF786000BF3C
:104C40000C37BD465DF8047B704780B483B000AF7D
:104C5000786000BF0C37BD465DF8047B70470000EC
:104C600080B485B000AF786039607B681B68FB60FA
:104C70007B68404A934213D07B68B3F1804F0FD0DA
:104C80007B683D4A93420BD07B683C4A934207D0F5
:104C90007B683B4A934203D07B683A4A934208D1EF
:104CA000FB6823F07003FB603B685B68FA681343A2
:104CB000FB607B682F4A93422BD07B68B3F1804F17
:104CC00027D07B682C4A934223D07B682B4A93429F
:104CD0001FD07B682A4A93421BD07B68294A9342A3
:104CE00017D07B68284A934213D07B68274A9342A7
:104CF0000FD07B68264A93420BD07B68254A9342AB
:104D000007D07B68244A934203D07B68234A9342AE
:104D100008D1FB6823F44073FB603B68DB68FA68EA
:104D20001343FB60FB6823F080023B685B6913431D
:104D3000FB607B68FA681A603B689A687B68DA6295
:104D40003B681A687B689A627B680A4A934203D080
:104D50007B680C4A934203D13B681A697B681A63EB
:104D60007B6801225A6100BF1437BD465DF8047BA1
:104D7000704700BF000001400004004000080040F0
:104D8000000C00400004014000400140004401408C
:104D90000048014000180040001C00400020004076
:104DA00080B487B000AFF860B9607A60FB681B6AB6
:104DB0007B61FB681B6A23F00102FB681A62FB68D7
:104DC0009B693B613B6923F0F0033B617B681B01FE
:104DD0003A6913433B617B6923F00A037B617A697B
:104DE000BB6813437B61FB683A699A61FB687A6927
:104DF0001A6200BF1C37BD465DF8047B704780B463
:104E000087B000AFF860B9607A60FB681B6A23F076
:104E10001002FB681A62FB689B697B61FB681B6A76
:104E20003B617B6923F470437B617B681B037A6978
:104E300013437B613B6923F0A0033B61BB681B010B
:104E40003A6913433B61FB687A699A61FB683A6986
:104E50001A6200BF1C37BD465DF8047B704780B402
:104E600085B000AF786039607B689B68FB60FB6849
:104E700023F07003FB603A68FB68134343F00703B9
:104E8000FB607B68FA689A6000BF1437BD465DF826
:104E9000047B704780B487B000AFF860B9607A6077
:104EA0003B60FB689B687B617B6923F47F437B618C
:104EB0003B681A027B681A43BB6813437A69134341
:104EC0007B61FB687A699A6000BF1C37BD465DF85C
:104ED000047B704780B485B000AF786039607B6830
:104EE00093F83C30012B01D102235AE07B68012268
:104EF00083F83C207B68022283F83D207B681B6896
:104F00005B68FB607B681B689B68BB60FB6823F089
:104F10007003FB603B681B68FA681343FB607B68A7
:104F20001B68FA685A607B681B68214A934222D04A
:104F30007B681B68B3F1804F1DD07B681B681D4ADE
:104F4000934218D07B681B681B4A934213D07B683E
:104F50001B681A4A93420ED07B681B68184A93421A
:104F600009D07B681B68174A934204D07B681B6892
:104F7000154A93420CD1BB6823F08003BB603B68A9
:104F80005B68BA681343BB607B681B68BA689A6049
:104F90007B68012283F83D207B68002283F83C2057
:104FA000002318461437BD465DF8047B704700BFE8
:104FB000000001400004004000080040000C0040D8
:104FC00000040140004001400018004080B483B05C
:104FD00000AF786000BF0C37BD465DF8047B7047BA
:104FE00080B483B000AF786000BF0C37BD465DF879
:104FF000047B7047014B1868704700BF24000020F5
:1050000070B50D4D0D4C641BA4100026A64209D1AD
:105010000B4D0C4C02F002FF641BA4100026A642AC
:1050200005D170BD55F8043B98470136EEE755F8B9
:10503000043B98470136F2E7148300081483000804
:1050400014830008188300080A44914200F1FF33DA
:1050500000D1704710B511F8014B03F8014F914290
:10506000F9D110BD02440346934200D1704703F8C2
:10507000011BF9E72DE9FF4755EC104B002D0E46BB
:1050800019462B46BBBF05F100431D4600232D23C7
:105090000B700D9BDDF830A0914623F02008BCBFBB
:1050A00022461446B8F1460F05D0B8F1450F00D19D
:1050B0000136022100E0032103AB019302AB009310
:1050C00045EC104B5346324600F0EAFCB8F1470F6E
:1050D000074602D119F0010F22D0B8F1460F07EBB5
:1050E000060910D13B78302B0AD10022002320463C
:1050F0002946FBF7F9FC18B9C6F10106CAF80060A9
:10510000DAF8003099440022002320462946FBF7B4
:10511000EBFC08B1CDF80C903022039B4B4507D334
:10512000039B0E9ADB1B3846136004B0BDE8F08782
:10513000591C03911A70F0E7F7B503460029B8BF70
:10514000494203F8022BB4BF2D222B2209294270B9
:105150002ADD0DF10704A4460A27A6460A4691FB5C
:10516000F7F607FB16153035632A04F1FF340EF805
:10517000015C3146F1DC3031AEF1020504F8011C6E
:10518000441C294661450AD30DF10902A2EB0E0227
:10519000654588BF00221344181A03B0F0BD11F80A
:1051A000012B04F8012FEDE7302330318370C170FB
:1051B000031DF1E72DE9F04F2DED028B8DB00C466C
:1051C000DDF8608016461F46054601F057FAD0F814
:1051D00000A05046FBF70CF800230A9323680593C0
:1051E000D8F8003094F818B0073323F0070303F120
:1051F0000802C8F80020D3E90023C4E91223D4E947
:10520000128929F000430793CDF8188008EE100AA0
:105210009F4BDDE906014FF0FF32FBF797FC88BB9F
:10522000DDE906019A4B4FF0FF32FBF771FC48BBFA
:105230000022002340464946FBF760FC10B12D23B5
:1052400084F84330934B9448BBF1470F94BF984682
:10525000804603232361059B23F0040222604FF064
:105260000009009733460BAA2146284600F0D8F9DA
:10527000013040F090804FF0FF300DB0BDEC028B5C
:10528000BDE8F08F42464B4640464946FBF75EFC80
:1052900040B14B46002BBCBF2D2384F843307F48E0
:1052A0007F4BD1E763680BF0DF0206925A1C3FD1B7
:1052B00006236360059B616843F4806200230393C7
:1052C0000AABCDE901B309AB49EC108B0093226026
:1052D0000DF123032846FFF7CDFE069B0999472BC6
:1052E000804608D1C81C02DB6368994241DDABF1FE
:1052F000020B5FFA8BFBBBF1650F20D801395A46D0
:1053000004F150000991FFF717FF0A9A1318012AB8
:105310008146236102DC2268D20701D50133236173
:105320009DF82330002B9CD02D2384F8433098E740
:10533000069A472ABED1002BBCD10123B9E7BBF1A5
:10534000660F18D1002963680BDD216113B922684B
:10535000D00702D501330B442361A1654FF000094A
:10536000DEE713B92268D20701D50233F4E701233F
:10537000F2E74FF0670B0A9B994205DB2368216136
:10538000D807EAD54B1CE7E70029D4BFC1F10202D8
:1053900001221344E0E723685A0507D423694246F3
:1053A00031462846B84701302CD164E7BBF1650F80
:1053B00040F2E080D4E9120100220023FBF794FBC5
:1053C000002834D0374A012331462846B8470130F7
:1053D0003FF451AFDDE909239A4202DB2368D80785
:1053E00010D518EE103A524631462846B8470130DB
:1053F0003FF441AF4FF0000804F11A090A9B013B4A
:10540000434509DC23689B0700F10581E0680B9B9D
:105410009842B8BF184630E701234A46314628462D
:10542000B84701303FF427AF08F10108E6E7099BD0
:10543000002B39DC1B4A012331462846B84701308E
:105440003FF419AFDDE90923134302D12368D907DB
:10545000D8D518EE103A524631462846B8470130A2
:105460003FF409AF4FF0000904F11A0A099B5B42AF
:105470004B4501DC0A9B92E7012352463146284600
:10548000B84701303FF4F7AE09F10109EEE700BF7C
:10549000FFFFEF7F347F0008387F0008407F00085F
:1054A0003C7F0008447F00080A9AA36D9A42A8BF77
:1054B0001A46002A914637DC4FF0000B29EAE979B9
:1054C00004F11A02A36D0593A3EB09035B4533DCDA
:1054D000DDE909239A423BDB2368DA0738D40A9BCB
:1054E000059A09999A1AA3EB01099145A8BF91461B
:1054F000B9F1000F35DC4FF0000829EAE97904F131
:105500001A0ADDE909239B1AA3EB090343457FF738
:1055100079AF0123524631462846B84701303FF45F
:10552000AAAE08F10108ECE7134631464246284688
:10553000B8470130C0D19EE6012331462846059286
:10554000B84701303FF497AE059A0BF1010BB9E76C
:1055500018EE103A524631462846B8470130BED1BF
:1055600089E6059A4B46424431462846B847013001
:10557000C1D180E60A9A012A01DCDB0738D5012374
:10558000424631462846B84701303FF474AE18EE23
:10559000103A524631462846B84701303FF46BAEC8
:1055A000D4E9120100220023FBF79EFAD8B90A9B26
:1055B00008F10102013B31462846B84701300ED1BF
:1055C00059E60123524631462846B84701303FF498
:1055D00052AE08F101080A9B013B4345F1DC4B4602
:1055E00004F15002DCE64FF0000804F11A0AF2E779
:1055F00001234246DFE701234A4631462846B847A1
:1056000001303FF438AE08F10108E3680B995B1AEA
:105610004345F0DCFAE64FF0000804F11909F4E71D
:105620002DE9F047164699468A680B69DDF8208017
:105630009342B8BF1346336091F8432007460C46A7
:105640000AB1013333602368990642BF33680233DD
:105650003360256815F0060506D104F1190AE368E0
:1056600032689B1AAB4226DC94F84320131E226852
:1056700018BF012392062BD404F143024946384651
:10568000C04701301ED02368E568326803F0060386
:10569000042B08BFAD1AA36822690CBF25EAE57583
:1056A00000259342C4BF9B1AED1800261A34B54258
:1056B0001AD1002008E00123524649463846C04727
:1056C000013003D14FF0FF30BDE8F0870135C6E768
:1056D000E1185A1C302081F84300224494F8451008
:1056E00082F843100233C7E7012322464946384671
:1056F000C0470130E6D00136D9E700002DE9FF4769
:105700000F7E0C9D782F914680460C469A4601F1FB
:10571000430207D8622F0AD8002F00F0D880582FF4
:1057200000F0A38004F1420584F842703AE0A7F14A
:105730006303152BF6D801A151F823F09557000803
:10574000A9570008255700082557000825570008C5
:1057500025570008A95700082557000825570008B5
:105760002557000825570008B5580008D9570008E4
:10577000975800082557000825570008D7580008F3
:1057800025570008D9570008255700082557000855
:105790009F5800082B681A1D1B682A6004F14205F7
:1057A00084F842300123A3E020682968060601F14D
:1057B00004030AD50E682B60002E03DA2D237642EF
:1057C00084F843305E480A2319E00E682B6010F01D
:1057D000400F18BF36B2EFE72B682068191D29600B
:1057E000010601D51E6802E04606FBD51E88544816
:1057F0006F2F0CBF08230A23002184F8431065682B
:10580000A560002DA2BF216821F0040121600EB91E
:10581000002D4DD01546B6FBF3F103FB1167C75DB4
:1058200005F8017D3746BB420E46F4D9082B0BD153
:105830002368DE0708D5236961689942DEBF3023FB
:1058400005F8013C05F1FF35521B2261CDF800A09F
:105850004B4603AA21464046FFF7E2FE01304CD1F9
:105860004FF0FF3004B0BDE8F087354881F845704F
:105870002968236851F8046B29601D0614D5DF07D9
:1058800044BF43F0200323601EB9236823F02003A4
:1058900023601023B0E7236843F0200323607823BC
:1058A000284884F84530E3E7590648BFB6B2E6E732
:1058B0001546BBE72B6826686169181D2860350608
:1058C0001B6801D5196002E07006FBD51980002322
:1058D00023611546BAE72B681A1D2A601D686268A5
:1058E00000212846FAF78CFC08B1401B6060636811
:1058F0002361002384F84330A8E723692A464946F8
:105900004046D0470130ABD023689B0713D4E068F2
:10591000039B9842B8BF1846A4E701233246494684
:105920004046D04701309BD00135E36803995B1AAC
:10593000AB42F2DCEBE7002504F11906F5E700BF06
:10594000467F0008577F00080EB400B59CB01DAB21
:10595000029006906FF000410948079104910949AF
:1059600053F8042B05910068019302A901F068FB2C
:10597000029B00221A701CB05DF804EB03B0704764
:10598000240000200802FFFF2DE9F74F03690C698E
:10599000A3420746C0F28180013C01F1140800F1E6
:1059A000140505EB8403019358F8243055F824209E
:1059B00001339A424FEA840B08EB8409B2FBF3F6F9
:1059C00031D34FF0000E4046AC46F24650F8042B5F
:1059D00093B206FB03E34FEA134E9BB2AAEB030319
:1059E000DCF800A0120C13FA8AF306FB02E2009323
:1059F000009B4FEA124E92B2C2EB1A4202EB2342D4
:105A0000BDF80030814543EA02434CF8043B4FEABD
:105A1000224ADBD255F80B302BB9019B043B9D4247
:105A20001A462ED33C61384601F0B6F8002824DB34
:105A3000013628464FF0000C58F8042BD0F800E04F
:105A400093B2ACEB0303120C13FA8EF3C2EB1E42BB
:105A500002EB23429BB243EA0243C14540F8043BB8
:105A60004FEA224CE8D255F8242005EB840322B9F2
:105A7000043B9D421A460AD33C61304603B0BDE860
:105A8000F08F1268043B002ACCD1013CC7E71268B2
:105A9000043B002AF0D1013CEBE70020EEE70000D8
:105AA0002DE9F04F2DED048B57EC106B93B0456A48
:105AB000DDF88080069110EE10AA044609920C933E
:105AC000BB4675B9102000F0DDFD0246606220B9CA
:105AD000A74BEA21A74801F0C3FBC0E901550560C7
